{
  "_format": "hh-sol-artifact-1",
  "contractName": "TournamentScores",
  "sourceName": "contracts/TournamentScores.sol",
  "abi": [
    {
      "anonymous": false,
      "inputs": [
        {
          "indexed": false,
          "internalType": "string",
          "name": "playerName",
          "type": "string"
        },
        {
          "indexed": false,
          "internalType": "uint256",
          "name": "score",
          "type": "uint256"
        },
        {
          "indexed": false,
          "internalType": "uint256",
          "name": "timestamp",
          "type": "uint256"
        }
      ],
      "name": "ScoreSubmitted",
      "type": "event"
    },
    {
      "inputs": [],
      "name": "getScores",
      "outputs": [
        {
          "components": [
            {
              "internalType": "string",
              "name": "playerName",
              "type": "string"
            },
            {
              "internalType": "uint256",
              "name": "score",
              "type": "uint256"
            },
            {
              "internalType": "uint256",
              "name": "timestamp",
              "type": "uint256"
            }
          ],
          "internalType": "struct TournamentScores.Score[]",
          "name": "",
          "type": "tuple[]"
        }
      ],
      "stateMutability": "view",
      "type": "function"
    },
    {
      "inputs": [
        {
          "internalType": "uint256",
          "name": "",
          "type": "uint256"
        }
      ],
      "name": "scores",
      "outputs": [
        {
          "internalType": "string",
          "name": "playerName",
          "type": "string"
        },
        {
          "internalType": "uint256",
          "name": "score",
          "type": "uint256"
        },
        {
          "internalType": "uint256",
          "name": "timestamp",
          "type": "uint256"
        }
      ],
      "stateMutability": "view",
      "type": "function"
    },
    {
      "inputs": [
        {
          "internalType": "string",
          "name": "playerName",
          "type": "string"
        },
        {
          "internalType": "uint256",
          "name": "score",
          "type": "uint256"
        }
      ],
      "name": "submitScore",
      "outputs": [],
      "stateMutability": "nonpayable",
      "type": "function"
    }
  ],
  "bytecode": "0x608060405234801561001057600080fd5b50610898806100206000396000f3fe608060405234801561001057600080fd5b50600436106100415760003560e01c80631ea1380c146100465780632ee691a3146100645780635962be1714610096575b600080fd5b61004e6100b2565b60405161005b9190610637565b60405180910390f35b61007e600480360381019061007991906104a5565b6101b7565b60405161008d93929190610659565b60405180910390f35b6100b060048036038101906100ab9190610451565b610279565b005b60606000805480602002602001604051908101604052809291908181526020016000905b828210156101ae5783829060005260206000209060030201604051806060016040529081600082018054610109906107aa565b80601f0160208091040260200160405190810160405280929190818152602001828054610135906107aa565b80156101825780601f1061015757610100808354040283529160200191610182565b820191906000526020600020905b81548152906001019060200180831161016557829003601f168201915b5050505050815260200160018201548152602001600282015481525050815260200190600101906100d6565b50505050905090565b600081815481106101c757600080fd5b90600052602060002090600302016000915090508060000180546101ea906107aa565b80601f0160208091040260200160405190810160405280929190818152602001828054610216906107aa565b80156102635780601f1061023857610100808354040283529160200191610263565b820191906000526020600020905b81548152906001019060200180831161024657829003601f168201915b5050505050908060010154908060020154905083565b6000604051806060016040528084815260200183815260200142815250908060018154018082558091505060019003906000526020600020906003020160009091909190915060008201518160000190805190602001906102db929190610331565b50602082015181600101556040820151816002015550507f748e0e2040c29c542d04df66b5d097f630a89bf4b8234bfef6c3e941c5d7991f82824260405161032593929190610659565b60405180910390a15050565b82805461033d906107aa565b90600052602060002090601f01602090048101928261035f57600085556103a6565b82601f1061037857805160ff19168380011785556103a6565b828001600101855582156103a6579182015b828111156103a557825182559160200191906001019061038a565b5b5090506103b391906103b7565b5090565b5b808211156103d05760008160009055506001016103b8565b5090565b60006103e76103e2846106c8565b610697565b9050828152602081018484840111156103ff57600080fd5b61040a848285610768565b509392505050565b600082601f83011261042357600080fd5b81356104338482602086016103d4565b91505092915050565b60008135905061044b8161084b565b92915050565b6000806040838503121561046457600080fd5b600083013567ffffffffffffffff81111561047e57600080fd5b61048a85828601610412565b925050602061049b8582860161043c565b9150509250929050565b6000602082840312156104b757600080fd5b60006104c58482850161043c565b91505092915050565b60006104da83836105c9565b905092915050565b60006104ed82610708565b6104f7818561072b565b935083602082028501610509856106f8565b8060005b85811015610545578484038952815161052685826104ce565b94506105318361071e565b925060208a0199505060018101905061050d565b50829750879550505050505092915050565b600061056282610713565b61056c818561073c565b935061057c818560208601610777565b6105858161083a565b840191505092915050565b600061059b82610713565b6105a5818561074d565b93506105b5818560208601610777565b6105be8161083a565b840191505092915050565b600060608301600083015184820360008601526105e68282610557565b91505060208301516105fb6020860182610619565b50604083015161060e6040860182610619565b508091505092915050565b6106228161075e565b82525050565b6106318161075e565b82525050565b6000602082019050818103600083015261065181846104e2565b905092915050565b600060608201905081810360008301526106738186610590565b90506106826020830185610628565b61068f6040830184610628565b949350505050565b6000604051905081810181811067ffffffffffffffff821117156106be576106bd61080b565b5b8060405250919050565b600067ffffffffffffffff8211156106e3576106e261080b565b5b601f19601f8301169050602081019050919050565b6000819050602082019050919050565b600081519050919050565b600081519050919050565b6000602082019050919050565b600082825260208201905092915050565b600082825260208201905092915050565b600082825260208201905092915050565b6000819050919050565b82818337600083830152505050565b60005b8381101561079557808201518184015260208101905061077a565b838111156107a4576000848401525b50505050565b600060028204905060018216806107c257607f821691505b602082108114156107d6576107d56107dc565b5b50919050565b7f4e487b7100000000000000000000000000000000000000000000000000000000600052602260045260246000fd5b7f4e487b7100000000000000000000000000000000000000000000000000000000600052604160045260246000fd5b6000601f19601f8301169050919050565b6108548161075e565b811461085f57600080fd5b5056fea264697066735822122084ec09be98f6df9f5e65dd0a1da199f70148855020eccd18864339898c00efb864736f6c63430008000033",
  "linkReferences": {},
  "deployedLinkReferences": {}
}