{
  "_format": "hh-sol-artifact-1",
  "contractName": "TournamentDetails",
  "sourceName": "contracts/TournamentScores.sol",
  "abi": [
    {
      "anonymous": false,
      "inputs": [
        {
          "indexed": false,
          "internalType": "string",
          "name": "tournamentName",
          "type": "string"
        },
        {
          "components": [
            {
              "internalType": "string",
              "name": "name",
              "type": "string"
            },
            {
              "internalType": "uint256",
              "name": "rank",
              "type": "uint256"
            }
          ],
          "indexed": false,
          "internalType": "struct TournamentDetails.Player",
          "name": "player1",
          "type": "tuple"
        },
        {
          "components": [
            {
              "internalType": "string",
              "name": "name",
              "type": "string"
            },
            {
              "internalType": "uint256",
              "name": "rank",
              "type": "uint256"
            }
          ],
          "indexed": false,
          "internalType": "struct TournamentDetails.Player",
          "name": "player2",
          "type": "tuple"
        },
        {
          "components": [
            {
              "internalType": "string",
              "name": "name",
              "type": "string"
            },
            {
              "internalType": "uint256",
              "name": "rank",
              "type": "uint256"
            }
          ],
          "indexed": false,
          "internalType": "struct TournamentDetails.Player",
          "name": "player3",
          "type": "tuple"
        },
        {
          "components": [
            {
              "internalType": "string",
              "name": "name",
              "type": "string"
            },
            {
              "internalType": "uint256",
              "name": "rank",
              "type": "uint256"
            }
          ],
          "indexed": false,
          "internalType": "struct TournamentDetails.Player",
          "name": "player4",
          "type": "tuple"
        },
        {
          "indexed": false,
          "internalType": "uint256",
          "name": "timestamp",
          "type": "uint256"
        }
      ],
      "name": "TournamentAdded",
      "type": "event"
    },
    {
      "inputs": [
        {
          "internalType": "string",
          "name": "name",
          "type": "string"
        },
        {
          "internalType": "string",
          "name": "player1Name",
          "type": "string"
        },
        {
          "internalType": "uint256",
          "name": "player1Rank",
          "type": "uint256"
        },
        {
          "internalType": "string",
          "name": "player2Name",
          "type": "string"
        },
        {
          "internalType": "uint256",
          "name": "player2Rank",
          "type": "uint256"
        },
        {
          "internalType": "string",
          "name": "player3Name",
          "type": "string"
        },
        {
          "internalType": "uint256",
          "name": "player3Rank",
          "type": "uint256"
        },
        {
          "internalType": "string",
          "name": "player4Name",
          "type": "string"
        },
        {
          "internalType": "uint256",
          "name": "player4Rank",
          "type": "uint256"
        }
      ],
      "name": "addTournament",
      "outputs": [],
      "stateMutability": "nonpayable",
      "type": "function"
    },
    {
      "inputs": [],
      "name": "getTournaments",
      "outputs": [
        {
          "components": [
            {
              "internalType": "string",
              "name": "name",
              "type": "string"
            },
            {
              "components": [
                {
                  "internalType": "string",
                  "name": "name",
                  "type": "string"
                },
                {
                  "internalType": "uint256",
                  "name": "rank",
                  "type": "uint256"
                }
              ],
              "internalType": "struct TournamentDetails.Player",
              "name": "player1",
              "type": "tuple"
            },
            {
              "components": [
                {
                  "internalType": "string",
                  "name": "name",
                  "type": "string"
                },
                {
                  "internalType": "uint256",
                  "name": "rank",
                  "type": "uint256"
                }
              ],
              "internalType": "struct TournamentDetails.Player",
              "name": "player2",
              "type": "tuple"
            },
            {
              "components": [
                {
                  "internalType": "string",
                  "name": "name",
                  "type": "string"
                },
                {
                  "internalType": "uint256",
                  "name": "rank",
                  "type": "uint256"
                }
              ],
              "internalType": "struct TournamentDetails.Player",
              "name": "player3",
              "type": "tuple"
            },
            {
              "components": [
                {
                  "internalType": "string",
                  "name": "name",
                  "type": "string"
                },
                {
                  "internalType": "uint256",
                  "name": "rank",
                  "type": "uint256"
                }
              ],
              "internalType": "struct TournamentDetails.Player",
              "name": "player4",
              "type": "tuple"
            },
            {
              "internalType": "uint256",
              "name": "timestamp",
              "type": "uint256"
            }
          ],
          "internalType": "struct TournamentDetails.Tournament[]",
          "name": "",
          "type": "tuple[]"
        }
      ],
      "stateMutability": "view",
      "type": "function"
    },
    {
      "inputs": [
        {
          "internalType": "uint256",
          "name": "",
          "type": "uint256"
        }
      ],
      "name": "tournaments",
      "outputs": [
        {
          "internalType": "string",
          "name": "name",
          "type": "string"
        },
        {
          "components": [
            {
              "internalType": "string",
              "name": "name",
              "type": "string"
            },
            {
              "internalType": "uint256",
              "name": "rank",
              "type": "uint256"
            }
          ],
          "internalType": "struct TournamentDetails.Player",
          "name": "player1",
          "type": "tuple"
        },
        {
          "components": [
            {
              "internalType": "string",
              "name": "name",
              "type": "string"
            },
            {
              "internalType": "uint256",
              "name": "rank",
              "type": "uint256"
            }
          ],
          "internalType": "struct TournamentDetails.Player",
          "name": "player2",
          "type": "tuple"
        },
        {
          "components": [
            {
              "internalType": "string",
              "name": "name",
              "type": "string"
            },
            {
              "internalType": "uint256",
              "name": "rank",
              "type": "uint256"
            }
          ],
          "internalType": "struct TournamentDetails.Player",
          "name": "player3",
          "type": "tuple"
        },
        {
          "components": [
            {
              "internalType": "string",
              "name": "name",
              "type": "string"
            },
            {
              "internalType": "uint256",
              "name": "rank",
              "type": "uint256"
            }
          ],
          "internalType": "struct TournamentDetails.Player",
          "name": "player4",
          "type": "tuple"
        },
        {
          "internalType": "uint256",
          "name": "timestamp",
          "type": "uint256"
        }
      ],
      "stateMutability": "view",
      "type": "function"
    }
  ],
  "bytecode": "0x608060405234801561001057600080fd5b50611141806100206000396000f3fe608060405234801561001057600080fd5b50600436106100415760003560e01c80637503e1b714610046578063f45dbfa01461007b578063f7f20cb314610097575b600080fd5b610060600480360381019061005b9190610c39565b6100b5565b60405161007296959493929190610ebc565b60405180910390f35b61009560048036038101906100909190610afb565b610421565b005b61009f610620565b6040516100ac9190610e9a565b60405180910390f35b600081815481106100c557600080fd5b90600052602060002090600a02016000915090508060000180546100e890611053565b80601f016020809104026020016040519081016040528092919081815260200182805461011490611053565b80156101615780601f1061013657610100808354040283529160200191610161565b820191906000526020600020905b81548152906001019060200180831161014457829003601f168201915b5050505050908060010160405180604001604052908160008201805461018690611053565b80601f01602080910402602001604051908101604052809291908181526020018280546101b290611053565b80156101ff5780601f106101d4576101008083540402835291602001916101ff565b820191906000526020600020905b8154815290600101906020018083116101e257829003601f168201915b50505050508152602001600182015481525050908060030160405180604001604052908160008201805461023290611053565b80601f016020809104026020016040519081016040528092919081815260200182805461025e90611053565b80156102ab5780601f10610280576101008083540402835291602001916102ab565b820191906000526020600020905b81548152906001019060200180831161028e57829003601f168201915b5050505050815260200160018201548152505090806005016040518060400160405290816000820180546102de90611053565b80601f016020809104026020016040519081016040528092919081815260200182805461030a90611053565b80156103575780601f1061032c57610100808354040283529160200191610357565b820191906000526020600020905b81548152906001019060200180831161033a57829003601f168201915b50505050508152602001600182015481525050908060070160405180604001604052908160008201805461038a90611053565b80601f01602080910402602001604051908101604052809291908181526020018280546103b690611053565b80156104035780601f106103d857610100808354040283529160200191610403565b820191906000526020600020905b8154815290600101906020018083116103e657829003601f168201915b50505050508152602001600182015481525050908060090154905086565b60006040518060c001604052808b815260200160405180604001604052808c81526020018b815250815260200160405180604001604052808a81526020018981525081526020016040518060400160405280888152602001878152508152602001604051806040016040528086815260200185815250815260200142815250905060008190806001815401808255809150506001900390600052602060002090600a020160009091909190915060008201518160000190805190602001906104ea9291906109db565b5060208201518160010160008201518160000190805190602001906105109291906109db565b5060208201518160010155505060408201518160030160008201518160000190805190602001906105429291906109db565b5060208201518160010155505060608201518160050160008201518160000190805190602001906105749291906109db565b5060208201518160010155505060808201518160070160008201518160000190805190602001906105a69291906109db565b5060208201518160010155505060a0820151816009015550507fe05bffca5726043bc5012273751be295d5f7a1824164afb02792a70e3f99e1978a82602001518360400151846060015185608001518660a0015160405161060c96959493929190610ebc565b60405180910390a150505050505050505050565b60606000805480602002602001604051908101604052809291908181526020016000905b828210156109d257838290600052602060002090600a02016040518060c001604052908160008201805461067790611053565b80601f01602080910402602001604051908101604052809291908181526020018280546106a390611053565b80156106f05780601f106106c5576101008083540402835291602001916106f0565b820191906000526020600020905b8154815290600101906020018083116106d357829003601f168201915b505050505081526020016001820160405180604001604052908160008201805461071990611053565b80601f016020809104026020016040519081016040528092919081815260200182805461074590611053565b80156107925780601f1061076757610100808354040283529160200191610792565b820191906000526020600020905b81548152906001019060200180831161077557829003601f168201915b505050505081526020016001820154815250508152602001600382016040518060400160405290816000820180546107c990611053565b80601f01602080910402602001604051908101604052809291908181526020018280546107f590611053565b80156108425780601f1061081757610100808354040283529160200191610842565b820191906000526020600020905b81548152906001019060200180831161082557829003601f168201915b5050505050815260200160018201548152505081526020016005820160405180604001604052908160008201805461087990611053565b80601f01602080910402602001604051908101604052809291908181526020018280546108a590611053565b80156108f25780601f106108c7576101008083540402835291602001916108f2565b820191906000526020600020905b8154815290600101906020018083116108d557829003601f168201915b5050505050815260200160018201548152505081526020016007820160405180604001604052908160008201805461092990611053565b80601f016020809104026020016040519081016040528092919081815260200182805461095590611053565b80156109a25780601f10610977576101008083540402835291602001916109a2565b820191906000526020600020905b81548152906001019060200180831161098557829003601f168201915b50505050508152602001600182015481525050815260200160098201548152505081526020019060010190610644565b50505050905090565b8280546109e790611053565b90600052602060002090601f016020900481019282610a095760008555610a50565b82601f10610a2257805160ff1916838001178555610a50565b82800160010185558215610a50579182015b82811115610a4f578251825591602001919060010190610a34565b5b509050610a5d9190610a61565b5090565b5b80821115610a7a576000816000905550600101610a62565b5090565b6000610a91610a8c84610f71565b610f40565b905082815260208101848484011115610aa957600080fd5b610ab4848285611011565b509392505050565b600082601f830112610acd57600080fd5b8135610add848260208601610a7e565b91505092915050565b600081359050610af5816110f4565b92915050565b60008060008060008060008060006101208a8c031215610b1a57600080fd5b60008a013567ffffffffffffffff811115610b3457600080fd5b610b408c828d01610abc565b99505060208a013567ffffffffffffffff811115610b5d57600080fd5b610b698c828d01610abc565b9850506040610b7a8c828d01610ae6565b97505060608a013567ffffffffffffffff811115610b9757600080fd5b610ba38c828d01610abc565b9650506080610bb48c828d01610ae6565b95505060a08a013567ffffffffffffffff811115610bd157600080fd5b610bdd8c828d01610abc565b94505060c0610bee8c828d01610ae6565b93505060e08a013567ffffffffffffffff811115610c0b57600080fd5b610c178c828d01610abc565b925050610100610c298c828d01610ae6565b9150509295985092959850929598565b600060208284031215610c4b57600080fd5b6000610c5984828501610ae6565b91505092915050565b6000610c6e8383610dd7565b905092915050565b6000610c8182610fb1565b610c8b8185610fd4565b935083602082028501610c9d85610fa1565b8060005b85811015610cd95784840389528151610cba8582610c62565b9450610cc583610fc7565b925060208a01995050600181019050610ca1565b50829750879550505050505092915050565b6000610cf682610fbc565b610d008185610fe5565b9350610d10818560208601611020565b610d19816110e3565b840191505092915050565b6000610d2f82610fbc565b610d398185610ff6565b9350610d49818560208601611020565b610d52816110e3565b840191505092915050565b60006040830160008301518482036000860152610d7a8282610ceb565b9150506020830151610d8f6020860182610e7c565b508091505092915050565b60006040830160008301518482036000860152610db78282610ceb565b9150506020830151610dcc6020860182610e7c565b508091505092915050565b600060c0830160008301518482036000860152610df48282610ceb565b91505060208301518482036020860152610e0e8282610d5d565b91505060408301518482036040860152610e288282610d5d565b91505060608301518482036060860152610e428282610d5d565b91505060808301518482036080860152610e5c8282610d5d565b91505060a0830151610e7160a0860182610e7c565b508091505092915050565b610e8581611007565b82525050565b610e9481611007565b82525050565b60006020820190508181036000830152610eb48184610c76565b905092915050565b600060c0820190508181036000830152610ed68189610d24565b90508181036020830152610eea8188610d9a565b90508181036040830152610efe8187610d9a565b90508181036060830152610f128186610d9a565b90508181036080830152610f268185610d9a565b9050610f3560a0830184610e8b565b979650505050505050565b6000604051905081810181811067ffffffffffffffff82111715610f6757610f666110b4565b5b8060405250919050565b600067ffffffffffffffff821115610f8c57610f8b6110b4565b5b601f19601f8301169050602081019050919050565b6000819050602082019050919050565b600081519050919050565b600081519050919050565b6000602082019050919050565b600082825260208201905092915050565b600082825260208201905092915050565b600082825260208201905092915050565b6000819050919050565b82818337600083830152505050565b60005b8381101561103e578082015181840152602081019050611023565b8381111561104d576000848401525b50505050565b6000600282049050600182168061106b57607f821691505b6020821081141561107f5761107e611085565b5b50919050565b7f4e487b7100000000000000000000000000000000000000000000000000000000600052602260045260246000fd5b7f4e487b7100000000000000000000000000000000000000000000000000000000600052604160045260246000fd5b6000601f19601f8301169050919050565b6110fd81611007565b811461110857600080fd5b5056fea2646970667358221220a3fec062306019a880dccbcd73e51093653c9291b64e2a54f1253df15276569b64736f6c63430008000033",
  "linkReferences": {},
  "deployedLinkReferences": {}
}